:100000000C9434000C943E000C943E000C943E0082
:100010000C943E000C943E000C943E000C943E0068
:100020000C943E000C943E000C943E000C94400056
:100030000C943E000C943E000C943E000C943E0048
:100040000C943E000C943E000C943E000C943E0038
:100050000C943E000C943E000C943E000C943E0028
:100060000C943E000C943E0011241FBECFEFD8E04C
:10007000DEBFCDBF0E944D000C9465000C940000C3
:100080008F938FB78F939F9385B193E0892785B91D
:100090009F918F918FBF8F91189584B1836084B9A0
:1000A00015B81092800085E08093810083E08093F2
:1000B000890080ED80938800109285001092840062
:0E00C00082E080936F007894FFCFF894FFCF1A
:00000001FF
